:020000040800F2
:10000000981900207D270008E9510008EB510008ED
:10001000ED510008EF510008F15100080000000008
:10002000000000000000000000000000F351000884
:10003000F551000800000000F7510008792700087A
:100040007927000879270008792700087927000810
:100050007927000879270008792700087927000800
:1000600079270008792700087927000879270008F0
:1000700079270008792700087927000879270008E0
:1000800079270008792700087927000879270008D0
:10009000F95100087927000879270008AD3B0008CE
:1000A00079270008792700087927000879270008B0
:1000B000BD280008B92A0008792700087927000818
:1000C0007927000879270008792700087927000890
:1000D0007927000879270008792700087927000880
:1000E00075600008792700087927000800000000E3
:1000F0000000000000000000000000000000000000
:1001000000000000000000005FF808F107B50121C1
:10011000042003F0B5FF03238DF8063048238DF843
:1001200007304FF4004302A921F8043D044803F0CE
:1001300045FA0022034B1A7003B05DF804FB00BFC0
:1001400000080140810E00200022014B1A70704708
:10015000810E002008B5054803F083FA044B00F433
:1001600000401B78181A18BF012008BD0008014084
:10017000810E002008B5FFF7EDFF60B10022064BAD
:100180001A70064B064A07CA83E80700054A137827
:1001900043F04003137008BD5A0F00205C0F00208D
:1001A000680F0020590F002010B5064C18B9012225
:1001B00023681A8210BD044B1B681B68984720688F
:1001C0000A30F7E7380F0020340F002010B5064C36
:1001D00018B9012223681A8210BD044B1B689B6862
:1001E000984720680C30F7E7380F0020340F0020C4
:1001F0001E4B10B51C68002310B90223238210BDCA
:100200001B4803802178024611F07F0112D1617AE8
:100210008C0644BF02230370037848064CBF43F0AA
:10022000010323F001031370124B1B681B699847ED
:100230000F48E4E70129E2D0022915D1617901F0E4
:100240000F039B0003F1804303F5B84309061B68C5
:1002500005D503F03003102BE6D10123E3E703F4C7
:100260004053B3F5805FF7E71846C8E7380F002022
:10027000820E0020340F00202DE9F843234FDFF8D1
:10028000A0803D682C8AD4B92E7A042E17D120493B
:100290000B68012B0ED11F4B1A681F4B92B21344EF
:1002A0005B001C6030230C60A8F800303B681E72B5
:1002B000BDE8F88310230726A8F80030F6E7AB8ADC
:1002C0009C4294BF042602269C4228BF1C46AB6970
:1002D000204698478146002001F0B0F922460146A9
:1002E000484606F04BF92146002001F0C3F92B8A5D
:1002F0004FF440521B1B2B826B8A1C443023A8F8FE
:100300000030064B6C821A80D0E700BF380F002007
:1003100028050020505C004002300020840E0020A0
:10032000860E002010B50A4B0A491B684978DA7816
:1003300091420AD3997841B99C8834B99A72064B94
:100340001B685B689847204610BD0220FCE700BF91
:10035000380F0020BC000020340F002038B50F4AB1
:100360000F4D12682B689269D978587990472B689D
:1003700004469A7A7AB170B91A7962B99B7853B9FE
:10038000084B1B68DB6898472B685A79DA72DA7871
:100390001A73204638BD0224FBE700BF100F00206F
:1003A000380F0020340F002038B52D4B1B6818780B
:1003B00010F07F0004D15A7A22F020025A7238BD20
:1003C00002284BD15A88002AF9D11A79002AF6D18D
:1003D0005979244D21F08000840004F1804404F513
:1003E000B844226849B22D780029B4BF02F0300227
:1003F00002F44052854231D982B39B7A73B300290B
:10040000236811DA03F03003102B07D1C4B2204661
:1004100001F0E1F83021204601F060F8124B1B6832
:100420005B6998470020CAE703F44053B3F5805F47
:10043000F4D10E4D78B90E4B93F82C1001F028F939
:1004400023682B409BB283F4405343F4004343F0B2
:1004500080032360E2E701F0ABF8F1E70220AEE7AA
:10046000380F0020BC000020340F00208FBFFFFF9A
:100470003800002038B51D4B1D4D18682D78417986
:1004800021F08004A20002F1804202F5B842136814
:1004900049B20029B4BF03F0300303F44053A5422E
:1004A00021D94488FCB9F3B1837AE3B113680029F8
:1004B000B5BF23F4E04323F4804323F0400323F04B
:1004C0007003B5BF9BB29BB283F0100383F48053DB
:1004D00043F4004343F080031360064B1B689B69A1
:1004E0009847002038BD0220FCE700BF380F0020ED
:1004F000BC000020340F002008B5064B1A68537A60
:1005000043F020035372044B1B68DB6998470020BB
:1005100008BD00BF380F0020340F0020054B10B578
:100520001C68628A18B98B889B1A238210BD0868E0
:100530001044FBE7380F002008B50B4B002093F860
:100540002C1001F0A5F8094B1B68187A082806D171
:100550004FF48052064B1A801022064B1A80A0F1ED
:1005600009035842584108BD38000020380F0020C8
:10057000840E0020860E0020F7B5984C984E276810
:1005800032683B7A092B19D0964B92B213445B0028
:100590001D886D0005F1804505F5C0452B783B7041
:1005A0006B787B70A88801F0A3F878802889276889
:1005B00001F09EF8B880AA892368DA8001222368B6
:1005C0001A72DA885D78002A64D11A7812F07F02F4
:1005D0004DD1092D03D1FFF7A5FE40BB16E0052D37
:1005E00020D193F90320002A07DA08232268137226
:1005F00003B0BDE8F040FFF79FBF9A78002AF4D11E
:100600009A88002AF1D19B7A002BEED13268764B82
:1006100092B2134400225B001A603022734B1A809E
:100620000623E3E7032D14D1DA78012A08D0704BB2
:1006300028461B685B699847032828D10923D5E71A
:100640009A88002AF3D15B7A9B06F0D5FFF754FF16
:10065000C3E7012DEBD1DA78012AE8D19A88002A84
:10066000E5D15B7A9F06E2D5FFF79EFEB5E7012A4A
:1006700004D10B2DDBD1FFF771FEAEE7022AD6D1F4
:10068000012DF1D0032DD2D1FFF7F4FEA5E700280C
:10069000ABD1BBE7062D12D11A7855065AD19B78FB
:1006A000534A012B126802D1D369DBB952E0022B05
:1006B00001D1136AF9E7032B4CD1536AF5E7002DFA
:1006C00054D15988002945D15A6822F47F42B2F5A5
:1006D000003F3FD11A7812F07F0216D19B88002B81
:1006E00038D1444B002522682846558293619847AB
:1006F00028464FF6FF7123681A8A8A4233D00228AF
:1007000001D0002A55D108222EE0012A0AD1384A08
:100710005879126892699047E0B923689B7A002B58
:10072000DFD117E0022A15D15A7902F00F018B00B0
:10073000100603F18043304803F5B8431B68007886
:100740004CBF03F0300303F44053884202D912F047
:10075000700FE4D0264B22681B6850781B699847BD
:100760000328C6D1236809221A7241E7082D04D153
:100770001B785B06EED1214BB4E70A2DEAD11A783B
:1007800002F07F02012AE5D19A7A002AE2D0598844
:100790000029DFD15A6822F47F42B2F5803FD9D1D7
:1007A000134A58791268926990470028D2D1144BA5
:1007B00098E793F90010002935DAD9880C4801919F
:1007C0000068019D90F82C00AA4284B21AD9019ABF
:1007D0001A829C82FFF750FD0AE700BF380F002005
:1007E000505C00400430002002300020860E0020C3
:1007F000100F0020F1010008BC000020A901000832
:10080000CD0100088A42E4D2944203D90021094A6A
:100810001160DEE792FBF0F100FB1122002AD8D133
:10082000044A0121F4E703221A724FF44052024BAA
:100830001A80DDE628050020840E0020F8B52B4E36
:100840003468237A022B4FD0042B4DD0032B01D0D8
:10085000052B43D1A369B3B1258AA5B1A28A9542DC
:1008600028BF154628469847238A07465B1B2382E4
:10087000638A00202B44638200F0EEFE2A46014684
:10088000384605F08AFE238A53B100214FF44052C6
:10089000174B08461A8000F0EDFE3022154B1A80E7
:1008A000218AA38A32688B4208D803231372137AF1
:1008B00032681372BDE8F840FFF73EBE09B1052368
:1008C000F4E7062313720C4B18680C4B80B20344F8
:1008D0005B0019603021074B1980E8E7072B03D133
:1008E000074B1B68DB6898470823E1E7380F0020B7
:1008F000840E0020860E0020505C00400230002054
:10090000100F0020F0B5002240F60F7548F2800667
:100910000A4B1C78A24204D3094B40F080001860B7
:10092000F0BD02F1805303F5B8539B00196842EA09
:1009300006072940394319600132EBE7BC0000206B
:100940004C5C004010B5134C23681A7A022A01D07F
:10095000042A09D1FFF790FC23681B7A22681372DE
:10096000BDE81040FFF7E8BD062A10D15A78052AE5
:1009700009D11A78520606D1D878FFF7C3FF064B83
:100980001B681B6A9847054B1B689B6898470823A0
:10099000E4E700BF380F0020340F0020100F0020C4
:1009A0007047000008B5034802F05EFEC0F3C000C7
:1009B00008BD00BF000C01400821014802F059BEEB
:1009C000000C01402DE9F3414FF0080810250327E2
:1009D0000DEB0804104E0121082003F051FB24F810
:1009E000048D214630468DF806708DF8075002F0D0
:1009F000E5FD4046012103F043FB214630468DF8DA
:100A000006708DF80750ADF8045002F0D7FDFFF7DF
:100A1000D3FF02B0BDE8F081000C014010B5084CD6
:100A2000627822B920B9FFF7C7FF0023E37210BD37
:100A30004306FAD50821034802F019FEF5E700BF86
:100A4000440F0020000C014010B5064B04461B78F3
:100A5000022B06D000F0E2FB2046BDE81040FFF775
:100A6000DDBF10BD440F0020224A038890429BB294
:100A700012D002F5006290420ED0B0F1804F0BD040
:100A8000A2F59832904207D002F58062904203D0DE
:100A900002F58062904203D14A8823F07003134329
:100AA000154A904208D002F5806290421FBF23F49D
:100AB0004073CA889BB2134303808B8883850B885D
:100AC00003850C4B98420FD003F5006398420BD07E
:100AD00003F54063984207D003F58063984203D042
:100AE00003F58063984201D10B7A03860123838248
:100AF000704700BF002C014000100040038C70B50F
:100B000023F001031B041B0C0384038C8488028BD9
:100B10000D8822F073021204120C2A4323F0020300
:100B20000D894E881B0435431B0C2B43134DA4B277
:100B3000A8420FD005F50065A8420BD005F5406529
:100B4000A84207D005F58065A84203D005F5806569
:100B5000A8420DD14D8923F008032B438D8823F043
:100B600004032B43CE898D8924F4407435432C43F0
:100B700084800283CA888286038470BD002C014071
:100B80004FF6FF73838000230380C380438003728A
:100B90007047038819B143F001030380704723F0C5
:100BA00001031B041B0CF8E7B0F8443021B143F4F7
:100BB0000043A0F844307047C3F30E03F9E783897C
:100BC00012B119438181704723EA0101FAE7038BCF
:100BD00023F008031B041B0C194301837047C9430E
:100BE00089B20182704708B504F016FE20B1BDE855
:100BF0000840022003F060B808BD0000F8B5AE4B15
:100C0000AE4C1B78AE4E03F0FF0593B1012728468A
:100C1000013D277003F0FCFBBD4208D8384603F0C5
:100C200009FC102003F0B8F93378DB06FCD503F09B
:100C3000C7F9337803F0FF05002B00F0A980EF0619
:100C400002D501236370F8BDEE0704D503F050FE12
:100C5000012003F0A1F915F0E80F53D023786EB20C
:100C6000980741D113F0280F10D0A37813F0C00FCC
:100C70000CD101F0C7FF022323712378202B05D16B
:100C8000002E07DBA37863F07F03A37023780BB9F2
:100C90000122A270690605D59A065EBFA27842F0CD
:100CA0004002A2702F0704D513F0E00F04BF1023F9
:100CB0002370A80618D5062003F0BCFBA3781906FC
:100CC0000ED42278402A09D11A0704D523F01C0338
:100CD00043F00203A3704023237001E0802AFAD17D
:100CE000A37843F02003A370002E08DA2378012BA9
:100CF00002BFA37843F00503A37080232370E8208C
:100D000003F04AF9AF0723D515F0680F1DD12378FA
:100D1000402B07D1A37813F0200203D1DE0640F167
:100D2000D78022702378002B00F0D880D9060CD50C
:100D3000A278D20709D5102B40F0D080A37A002BDF
:100D400000F0CC8043F00803A372022003F024F9E2
:100D50006B071DD5227894F9023012F0D00F00F005
:100D6000D280E278002A40F0CE80002BC0F2CD8005
:100D700004F06EFF23799F0748BFA27823F0060393
:100D800044BF42F00102A2702371042003F004F971
:100D90004C4B1B7803F0FF05002B38D003F02CF9E7
:100DA000E07915F0010F0CBF03466423AE0744BF82
:100DB0000A33DBB2690744BF0A3BDBB22F0744BFEB
:100DC0000133DBB2EE0644BF03F1FF33DBB2C82BC5
:100DD00028BFC8230A2B38BF0A23217A15F0200F19
:100DE00014BF64220A4615F0400F18BF322215F0D6
:100DF000800F18BF1922984201D18A4207D0E371AF
:100E000000232272E37204F06DFD04F021FF2E4BEB
:100E10001B7803F0FF05002B44D003F0F5F8627A4D
:100E200015F0010F0CBF13466423A80744BF0A3313
:100E3000DBB2690744BF0A3BDBB22F0744BF013373
:100E4000DBB2EE0644BF03F1FF33DBB2C82B28BF91
:100E5000C8230A2B38BF0A239A4206D063720023A4
:100E60002279E37242F008022271A806227806D5A0
:100E7000102A04D1A37A002B60D10223A37215F0AB
:100E8000C00F0FD012B112F0180F0BD00F4E357AE1
:100E90006B064CBF05F0BF0545F040052846FFF73F
:100EA000BDFD3572237813F0FC0F3FF4CCAEBDE8E6
:100EB000F84001F0BFBE00BF740F0020440F0020B7
:100EC000590F0020400F0020580F0020880E0020EE
:100ED000580744BF43F00803A37023E7002323719E
:100EE00004F09AFC58B1A37813F0400307D1A37023
:100EF0000823237001F09EFE01F064FC25E7002327
:100F0000A370237021E7002B09DA0023237104F07A
:100F100059FC01F035FE00F0C3FC04F079FEA37823
:100F200013F020021FBF03F07F0343F00103A370FF
:100F300040230ABFA2702370227026E7D9079ED5EE
:100F400043F004039AE700BF2DE9F84F654CFFF723
:100F500055FEA378002B48D004F05EFC90BB624B9A
:100F60005D7A1A7ADF681543604E96F848309B0721
:100F700002D5202003F036F84FF000084FF0814AE8
:100F8000A37893B394F80190B9F1000F2DD1D8074D
:100F900015D5217811F0C0006AD013F0040B14D1DC
:100FA0004146584684F80AB005F0ACFA5846FFF7B7
:100FB00035FDA37823F0020343F00403A370FFF789
:100FC0001DFEDDE7457C076BCEE7802912D10B20A3
:100FD00003F030FA0021484605F094FA4846FFF73E
:100FE0001DFD01F02DFC63780BB1BDE8F88FFFF714
:100FF00005FEF8E7402906D102F0FEFD18B9A378F6
:1010000023F02003A370A3781907D8D5DFF8D8B050
:101010009BF809204AB19A0707D496F848309B07F5
:101020001CD5237943F0080323719BF808305BB18A
:10103000A378980708D405F04000FFF7EFFC0121E2
:101040004FF07E5003F0A4F8A3789907B7D443F08B
:1010500010030220A37002F02FFEB0E7394605F01E
:10106000300005F04FFA0121504603F091F8DCE71B
:10107000A37A4BB39A0708D51B4B5B7AE3B1414681
:1010800005F040FA0123A37299E713F00C0F96D0F4
:10109000154B5B7A53B10A2003F0CCF996F848302F
:1010A00099070BD5237943F008032371A37A1A0714
:1010B00002D5022002F000FE0023E4E7394605F0E5
:1010C000300005F01FFAF1E723791B077FF577AFB2
:1010D000394605F0300005F015FA237923F00803AE
:1010E00023716CE7440F0020880E0020780F002049
:1010F0002DE9F041454B464E93F8483013F0080F68
:1011000007D004F08FFF20B101230720337003F0D4
:1011100091F9337813F0810314D0022003F08AF997
:1011200001233370002425463A4F04F06DFEFF285A
:1011300017D1FFF758FDFFF707FF7378002BF4D0A6
:10114000BDE8F081337002F057FD30B1324A1378B8
:1011500043F020031370FFF7F7FE2E4802F04EFD18
:10116000E0E70A2801D00D282CD1FFF7EDFE96F814
:101170000180B8F1000FE3D107F8048002F0AAFC67
:1011800015F0010505D00B2003F02CF94446254647
:10119000CBE73C781CB9204603F024F9F7E7242C70
:1011A00006D1384602F092FD03F01CF92C46EEE71A
:1011B000337813F0210401D00920F5E7384600F018
:1011C00077FBE9E735B12928AFD1AB07ADD505F0FD
:1011D000FD05AAE72028A8D92F28A6D028280FD0B7
:1011E0003B280FD04E2C0FD82346A0F16102D2B27B
:1011F000192A04F1010498BF2038E4B2F85494E7A6
:10120000022592E7042590E701258EE7780F00205C
:10121000440F00202C050020590F002010B5FFF7C7
:10122000E2FC064CFFF790FE637833B904F0F4FA61
:101230000028F7D12378082BF4D010BD440F0020EC
:1012400000232DE9F743DFF87091DFF87081ADF8E6
:101250000630D9F80030524A99B21B0411804CD59F
:10126000138803F00F0388F80030002B65D14BF68C
:10127000BF764C4C4C4D23684C4F9BB22B802B8837
:1012800003F030033B802B8803F440532B8023680A
:10129000334083F4005383F0200343F4004343F0CE
:1012A00080032360138813F0100F236828D123F4E0
:1012B000E14323F070031B041B0C2360FFF742FB88
:1012C00023682A883340D6042A8848BF83F4805391
:1012D00095043A8848BF83F40053D4063A8848BF3F
:1012E00083F01003900648BF83F0200343F40043CB
:1012F00043F080032B4A9BB2136003B0BDE8F08338
:101300009BB2ADF80630BDF806301A0508D5236843
:1013100023F070031B051B0D2360FFF72DF9CFE7AA
:10132000BDF806301B0494D5236823F070031B0519
:101330001B0D2360FFF782FAC2E79A0002F1804298
:1013400002F5B842116889B2ADF80610BDF8061072
:1013500009040AD51168013B21F070010905090D46
:101360001160134A52F823309847BDF806301A0628
:101370007FF56FAF98F80020930003F1804303F5E9
:10138000B8431968013A21F4E14121F070010904E0
:10139000090C1960074B53F82230984759E700BFF2
:1013A00092110020005C0040840E0020860E002078
:1013B000C0000020DC000020445C0040140F00202E
:1013C000374B82B01A6842F001021A605968354AF8
:1013D0000A405A601A6822F0847222F480321A603D
:1013E0001A6822F480221A605A6822F4FE025A60B7
:1013F0004FF41F029A600022009201921A6842F490
:1014000080321A601A6802F400320192009A0132A6
:101410000092019A1AB9009AB2F5A06FF2D11A6837
:1014200012F4003218BF01220192019A012A30D130
:101430001D4A116841F010011160116821F003018B
:101440001160116841F0020111605A685A605A68CF
:101450005A605A6842F480625A605A6822F47C12D8
:101460005A605A6842F4E8125A601A6842F0807270
:101470001A601A689201FCD55A6822F003025A6079
:101480005A6842F002025A605A6802F00C02082AB6
:10149000FAD14FF00062054B9A6002B0704700BF6E
:1014A000001002400000FFF80020024000ED00E0C4
:1014B0004FF6F873014A034013607047505C0040D8
:1014C000800000F1804000F5B840036823F4EC434D
:1014D00023F07003194389B201607047800000F166
:1014E000804000F5B8400368CA0623F4E04323F0C7
:1014F00040039BB248BF83F010038A0648BF83F0C5
:10150000200343F4004343F08003036070478000EE
:1015100000F1804000F5B8400368CA0423F480431A
:1015200023F070039BB248BF83F480538A0448BF02
:1015300083F4005343F4004343F080030360704797
:10154000800000F1804000F5B840036823F4E043D8
:1015500023F040039BB283F0300343F4004343F095
:10156000800303607047800000F1804000F5B840C0
:10157000036823F4804323F070039BB283F4405349
:1015800043F4004343F0800303607047800000F1A0
:10159000804000F5B840036823F4F8731B051B0D69
:1015A00043F4004343F0800303607047FFF7EEBF4E
:1015B000800000F1804000F5B84003685B0409D565
:1015C000036823F0F0031B051B0D43F4404343F075
:1015D000800303607047800000F1804000F5B84050
:1015E00003685B0609D5036823F0F0031B051B0D98
:1015F00043F4004343F0C00303607047064B4908BF
:101600001B6849009BB203EBC00000F1005000F5DD
:101610004050400001607047505C0040054B490855
:101620001B6849009BB203EBC000034B03445B0003
:1016300019607047505C004004300020054B1B6867
:101640009BB203EBC00000F1005000F54050400099
:1016500000887047505C0040044B1B689BB203EB52
:10166000C000034B03445B0018887047505C004087
:1016700004300020044B1B689BB203EBC000034BFB
:1016800003445B0019607047505C0040023000204A
:101690000D4B0E4A1B683E299BB203EBC00002446F
:1016A0004FEA42020AD94B09C80604BF03F1FF33CF
:1016B0009BB29B0243F40043136070474B08C90779
:1016C00048BF01339B02F7E7505C00400630002022
:1016D000054B1B689BB203EBC000044B03445B004B
:1016E0001868C0F309007047505C004006300020C5
:1016F000C3B2000A40EA0320704710B5441E14F834
:10170000010F00B910BD04F065FBF8E7632838B598
:101710001DD90A24B0FBF4F304FB13043034E4B203
:10172000D8B20A25B0FBF5F305FB13053035EDB251
:10173000D8B23030C0B204F04DFB15B1284604F0E9
:1017400049FB54B12046BDE8384004F043BB0928AA
:101750004FF00004E5D82546EBE738BDF0B50D465F
:1017600085B00021044607F033F920B12D2004F0A4
:1017700031FB04F100442E46284F012E2AD86B0875
:10178000C3EBC31305EB430313F0FF0F04D0204654
:10179000234906F07FFF04464FF07C51204606F0B7
:1017A00071FE07F053F900230A22DCB20133C8B9F5
:1017B0003022631E6B44AC421FD306D104AA631CC3
:1017C0001444302204F8102CDCB20DEB0406CCB922
:1017D00005B0F0BD2046394606F05CFF023E0446E7
:1017E000F6B2CAE704A90C44B0FBF2F102FB110007
:1017F000303004F8100C0846D7E70134E4B203F89F
:10180000012FD8E7AC4202D12E2004F0E3FA16F8FB
:10181000010D013C04F0DEFAE4B2D8E70000C84252
:101820000000204108B5074B93F84830DB0707D587
:10183000054906F02FFF0421BDE80840FFF78EBFE1
:101840000321F9E7780F00208B42213D08B5074BB3
:1018500093F8481011F0010103D0054906F01AFF72
:101860000121BDE80840FFF779BF00BF780F0020D5
:101870008B42213D08B500214422074807F064F956
:101880000649002003F093FD20B9BDE80840072079
:1018900002F0A8BD08BD00BF880E0020B00E0020D9
:1018A0000149024802F0DCB9680F0020A40E0020B4
:1018B0002DE9F04F8246B64C97B0402200212046D9
:1018C00007F042F9B34BA34603CBC4F80100C4F8B8
:1018D000051018889978A4F80900E1729AF8002098
:1018E000A3F10809242A4FF0000302BF0125A370C9
:1018F00065704FF000040CBF03231D4626462746A3
:10190000CDE9064414BF8DF83B308DF83B309DF88F
:101910003B201AF8023063BB16B1002F08BF022724
:10192000A20605D5DBF820209B4B9A4200F30C87DA
:10193000002D00F00182E30740F110829BF8033094
:10194000012B06D1DBF80C00944906F0A3FECBF87E
:101950000C00E2055CBFD9F80C30CBF82C309BF8BA
:101960000030042B40F00C82630600F106821C2339
:10197000E7E0A3F141011929099300F2D38601326E
:101980008DF83B200DF13B010FAA504602F090FB71
:10199000002800F0CA860F9A1046089204F0FEFF55
:1019A00007F07AF85FFA80F8404606F01FFE089AC2
:1019B0000146104606F064FD794906F06BFE04F01E
:1019C00083FF099B82B2472B1CD04D2B00F0EC808B
:1019D000463B142B29D8DFE813F0300128002800FB
:1019E0004E01580162016C01280071012800790143
:1019F00028007F0185018B0128002800280097011D
:101A00009F01A701B8F1280F00F0BB8027D8B8F1DB
:101A1000130F0CD8B8F1110F80F08B80B8F1040FC0
:101A200071D017D3B8F10A0F68D0142389E0B8F148
:101A30001C0F63D008D8B8F1150FF6D8C8F11508F7
:101A40008BF80380062379E0B8F11E0F56D0B8F169
:101A5000260FEAD1002F40F06B8602272BE0B8F169
:101A60003D0F00F089801DD8B8F1350F4BD010D84C
:101A7000B8F12B0F02D0B8F1310FD6D1002F40F0C2
:101A80005786B8F1310F70D18BF806700823032701
:101A900049E0B8F13B0FC8D8A8F136088BF80780A9
:101AA00009234BE0B8F15B0F1CD8B8F15A0F4CD2A8
:101AB000B8F1500FB9D1B8F1260F8BF8018064D17D
:101AC000A2F114039BB21E2BAFD8364921FA03F3BF
:101AD000D907AAD50A23B2FBF3F2763A8BF8012094
:101AE000012320E0B8F15C0F08D0B8F15E0F9CD85C
:101AF000C8F15E088BF8028005231FE01AB9002F99
:101B000040F01686012708F0FD031C2B8BF800809F
:101B100002D0B8F15C0F36D10AB10A2A85D1002370
:101B200040448BF80000079A1A41D2077DD515234F
:101B300007E00223A8F111088BF80580002AF2D0F3
:101B40001723184617B0BDE8F08F2AB9A8F15A0834
:101B50008BF804800323E6E70A2A7FF466AFB8F126
:101B60005A0F3FF462AF0423DDE70A2A7FF45DAF2A
:101B700001238BF8063089E7002A7FF456AF0A2349
:101B8000D1E70723DAE70023D8E70123D6E700BF30
:101B9000CC0E0020880E0020809698003333CB4175
:101BA0000000C84201041040002AC9D1B8F11E0F3C
:101BB0003FF63BAF0123BC4A03FA08F3134214D1AA
:101BC00013F4407F23D113F0380F3FF42EAFB8F158
:101BD000040F18D0B8F1050F17D0B8F1030F02D1D8
:101BE00010238BF80A300C239DE7B8F1000F05D0C5
:101BF000B8F1010F05D08BF8088002E003238BF8C1
:101C000008300B238FE72023EBE70023E9E7B8F147
:101C1000080F04D0B8F1090F05D00D2383E7402346
:101C20008BF80930F9E70023FAE7012202FA03F3FF
:101C3000079A13439BB2079369E64FF000080F9B86
:101C4000CBF80C3044FA08F3D80700F1778540F25E
:101C5000613343FA08F3D90706D500210F9806F03F
:101C6000B7FE002840F06D85012303FA08F848EA22
:101C70000404A4B24BE60F9B4FF00108CBF81030E0
:101C8000069B43F001030693DCE70F9B4FF002082D
:101C9000CBF81430069B43F002030693D2E70F9B68
:101CA0004FF00308CBF81830069B43F0040306936B
:101CB000C8E78BF81C804FF00408C3E70F9806F0C4
:101CC000C5FE4FF00508CBF82000BBE70F9B4FF097
:101CD0000608CBF82430B5E70F9B4FF00708CBF888
:101CE0002830AFE70F9B4FF00808CBF82C30A9E75E
:101CF0006E490F9806F08AFE002840F01C858BF88C
:101D000030804FF009089DE70F9B46F00106CBF8A5
:101D100034304FF00A0895E70F9B46F00206CBF8E7
:101D200038304FF00B088DE70F9B46F00406CBF8D8
:101D30003C304FF00C0885E79BF80230012B0FD1A7
:101D4000022F7FF406AE9BF80130502B3FF401AE1A
:101D5000002B3FF4FEADE0073FF5FBAD1623F0E6A8
:101D600099F80130002B7FF4F4ADE1073FF5E6ADC3
:101D7000D9F81030CBF80C30EBE524F04004A4B2D5
:101D80009BF80530002B74D0012B0CBF01230023DE
:101D90000A930CBF0023022309930CBF02230123E3
:101DA00008939BF80330012B15D14FF00008DFF8A2
:101DB00008A146FA08F3D80708D50BEB8809D9F82B
:101DC0003400514606F066FCC9F8340008F10108F9
:101DD000B8F1030FEDD1032F06D19BF80630012B8C
:101DE00002D1042E40F0B384DFF8C4A010AB0AF196
:101DF000280207CA83E80700079A91053FD49BF899
:101E00000090B9F10A0F4BD0B9F15C0F00F0BF8020
:101E1000032F1FD0F6B19BF804304FF034080B931A
:101E2000DAF840304FF0000ADFF890B00C9346FA31
:101E30000AF2D10700F1E2801D4B08EB030252F8D1
:101E4000182C48F80B200AF1010ABAF1030F08F127
:101E50000408ECD1B9F11E0F00F0FC80B9F1350F88
:101E600000F01581B9F11C0F40F0C0801149062027
:101E7000F2E001224FF0020CCDE9092C90E79BF82B
:101E80000700062801D91D235BE69AF80620824246
:101E9000B5D0194603F08BFA0028B0D1072350E6DD
:101EA00076B91A234DE600BF0700004000007F43CB
:101EB000880E0020DC0E00203333CB41CC0E0020F6
:101EC00014F0500F3FF453ADDBF8240004F066FD2E
:101ED00006F0E2FDC0B20628D5D89BF81C30142BC2
:101EE00005D0022B7FF4A1AD22063FF59EAD002860
:101EF00048D001385FFA80F8A249404603F057FA0B
:101F00000028CBD04FF00009DAF840309BF81CB025
:101F1000DFF878A20B9346FA09F3DB071DD54FEAE9
:101F2000890000EB0A03BBF1140F5A6B2DD1CDE9E8
:101F30000C32954B1844416BC06906F0A1FA0D9A1A
:101F4000114606F09DFA0C9BB9F1020F186104D1FD
:101F50000B9906F095FACAF8180009F10109B9F1D0
:101F6000030FD8D124F05004A4B2884B93F8019009
:101F70009B46B9F1500F40F09080002E00F0AA80EF
:101F80001F23DEE59BF80780B6E71A61E5E7002E20
:101F900087D0DAF840304FF034084FF0000ADFF80D
:101FA000EC91DFF8E4B10B9346FA0AF1C80720D5AB
:101FB00010AB0BEB080053F82A1050F8180C06F081
:101FC0005FFA59F8081006F05BFABAF1020F49F807
:101FD000080004D10B9906F053FAC9F83C000AF145
:101FE000010ABAF1030F08F10408DDD14FF000082F
:101FF000BBE75BF8081049F80810F0E7B9F1350FB6
:102000003FF421AF0B9B58F80B20C3B95E4B0D92E8
:1020100053F8081010AB53F82A0006F033FA0D9A63
:10202000114606F02FFABAF1020F4BF808007FF4C0
:102030000AAF0C9906F026FACBF83C0003E7524BA6
:10204000114603EB080050F8180C06F01BFA4BF889
:102050000800F8E607204B4903F0A9F900283FF4EF
:102060001DAF16B9B04637467FE7002347494648BB
:1020700046FA03F2D20706D49A0002EB010C02449E
:10208000D269CCF810200133032BF1D1AEE73F4BDE
:102090005B78012BAAD91E2353E5022F1AD1B9F17F
:1020A000000F03D1002E08BF002713E00021D868DD
:1020B00006F084FC00287FF451AEB9F18C0F4CD0AF
:1020C00042D8B9F1020F67D0B9F1030F66D0B9F168
:1020D000010FE7D015F0010315BF24F0210424F40B
:1020E0004874A4B224F0010417B124F4E054A4B25B
:1020F000002C40F03883CDE913441594002B00F0F8
:102100008381079B23F04903002B40F02F831F4B53
:102110001B78352B02D0002B40F028831A4C1B492A
:10212000E368227A1493637A13A813438DF854302A
:1021300001F072FF034600287FF403AD144A1C34FB
:1021400007CA84E80700FCE4B9F18E0F05D002D37A
:10215000B9F18F0FBED145F0100509F172095FFA90
:1021600089F9B9F1010F98BF45F00805002E3FF439
:1021700098AE0C220649074806F0B4FC0028A9D105
:1021800043E000BFDC0E0020880E0020CC0E0020B3
:10219000000F0020A40E002045F00405002E3FF49F
:1021A00080AE0123089A099903FA02F28B401A4380
:1021B00016420C9200F0CE82089B089A0BEB83002B
:1021C0008A4B406B03EB8201C9690B9306F058F907
:1021D000099B81461A460BEB83000B9B406B03EB7C
:1021E0008201C96906F04CF914F0800182460C9A0C
:1021F00000F092800B9B24F080040C227C4903F1B8
:102200001C00A4B206F06EFC08B9212399E49BF8E7
:102210000330DBF82800012B04D1764906F03AFAA6
:10222000CBF82800DFF8D4B14FF08141DBF828303B
:102230001846069306F02EFA069B194606F02AFA6F
:1022400049460690484606F025FA069B0146184680
:1022500006F016F951460690504606F01BFA069B0A
:102260000146184606F00CF90021069006F0B0FB76
:10227000002840F07282069B184604F0A3FB5146EA
:102280000690484601F0B3FF069B014603F1004368
:10229000184606F0B3FA03469BF80120DFF85CB15C
:1022A000032ADBF8282008BF00F100430021104674
:1022B0000B93069206F08CFB069A0B9B28B102F159
:1022C000004203F10043CBF82820089A1846023256
:1022D0000BEB820251460B92069306F0DBF90146A6
:1022E000484606F0CDF84FF07C5106F0D3F90B9A32
:1022F000099B90609A1C069B494618460BEB820B83
:1023000006F0C8F9514606F0BDF84FF07C5106F0D2
:10231000C1F9CBF80800DDE6069B1A4200F02082E6
:102320009BF8033024F00E04012BA4B217D18B4686
:10233000314B304A069941FA0BF1C90708D51868A4
:1023400011460C920B9306F0A5F90B9B0C9A1860A2
:102350000BF1010BBBF1030F03F10403EAD1099A5E
:10236000264B02F1020B03EB8B0BDBF808105046F7
:10237000069306F085F8089B0B9003F1020A069B72
:10238000484603EB8A0ADAF8081006F079F80B9A47
:10239000114601F02CFFDBF808108146DAF808003E
:1023A00001F025FF069B014698628246484606F0EA
:1023B00067F820F000491249484606F027FB00283C
:1023C0003FF488AE4FF07C51484606F01FFB0028D2
:1023D0007FF41BAF0B49504606F05CF9494606F006
:1023E000F7FA00283FF476AE0FE700BF880E002012
:1023F000000F00203333CB41DC0E0020CC0E002038
:102400000AD7A33B6F12833AAC4BDFF8D09293F814
:102410004830AB4C13F0020F0ED099F80130013B5D
:10242000022B88BF45F04005002E00F0BD80022F32
:1024300040F0BA8045F08005D9F82030A36199F8C2
:102440000230637013B108238DF85430D9F80C3082
:10245000D9F82CA023615146E068139306F0AEFA38
:1024600005F0400608B1AA060CD5607A38B12B06F3
:1024700005D4002E00F0AC80002104F06DF8D9F8EE
:102480002C30E3600EB9E368149399F8303099F872
:102490000A002375637A834205D0149904F05CF82E
:1024A00099F80A3063729DF85430627A99F80900FD
:1024B00013438DF85430237A834207D0FEF7C4FAD1
:1024C00099F80930002B40F0858023729DF8543034
:1024D000227A13438DF8543099F80030042B03D13D
:1024E000D9F8240002F052FD99F80530032F23712A
:1024F00099F80330A37010D199F80630637113B9BD
:102500000023C9F83C30D9F83C60206C314606F015
:1025100055FA10B9266401F08BFB99F80730A279BF
:102520009A4207D0A371674B10AA07CA83E8070035
:1025300001F07EFB99F80430E37099F80030262B07
:102540007AD04AD81C2B61D01E2B5FD00A2B4DD0DD
:1025500099F80130502B23700DD0022F0BD1012B95
:10256000594E78D113A9304602F052FB96E8070085
:10257000564B83E8070099F80830E371002B3FF4CD
:10258000E0AAFEF74BFEE379032B514B40F0A88005
:102590001B78022B04D0082001F08EFBFEF7D4FC40
:1025A0000023E371FFF7CDBA637A102B7FF444AFB9
:1025B000237805F04002013B022B05D8002A3FF4A6
:1025C0003BAF45F0200537E7002A7FF435AFF8E749
:1025D000514652E7227A134377E75C2B31D0662BC2
:1025E00033D0282BB4D13949072027E0394E404653
:1025F000314602F019FEA3794345A9D196E80700B8
:10260000304B83E8070001F013FBA1E79DF854303D
:1026100043F001038DF854301FB113A92A4802F08A
:10262000F7FA2C4E13A9304602F0F2FA96E80700AA
:10263000264B83E807008BE70620244902F0F4FDCF
:1026400086E7214A244B07CADBE70023224A63635B
:10265000C2E90133D7E733B99DF8543043F00103A1
:102660008DF854307EE7023B012B13D80A9BC5F34B
:1026700080050393099B04950293089B134A0193D9
:10268000D9F8283013A900933046A6F1240302F0AC
:10269000F3FA6BE79DF854302A4643F0040313A97C
:1026A00030468DF8543002F0A5FC00283FF45EAFB0
:1026B00001287FF460AFFFF7F3F85CE7780F0020A4
:1026C000880E0020B00E0020000F0020A40E002075
:1026D000440F0020DC0E0020BC0E0020CC0E002099
:1026E0000122228064220025DA711A725A721B7844
:1026F0002571022BE570A57125810FD01D49284653
:1027000002F055FE00283FF4C9AB01F091FA2846CB
:10271000002103F0F7FE2846FEF780F9082001F0BB
:1027200089FE3DE70123FFF70CBA0223FFF709BA40
:102730001823FFF706BA2623FFF703BA1923FFF77A
:1027400000BA0423FFF7FDB91B23FFF7FAB92523CD
:10275000FFF7F7B92023FFF7F4B92223FFF7F1B908
:102760002323FFF7EEB92423FFF7EBB91023FFF77C
:10277000E8B900BFB00E0020FEE7000008B50C4A23
:102780000C4B0D498B420ED30C480D494FF0000203
:102790008842B8BF40F8042BFADBFEF711FEBDE813
:1027A000084001F0F7B852F8040F43F8040BE9E7CA
:1027B0003C92000800000020280500202805002089
:1027C0009415002038B5174D402195F8482016483B
:1027D000530724D500F04BFF144C154AA38D154820
:1027E000E381154B1B68B3FBF2F395F8302001250C
:1027F0005343DBB26373013B9BB2838529468582D9
:10280000FEF7EDF94FF08042A36A5B88013B9BB273
:10281000938595824FF08052084B1A6038BD00F0C6
:1028200028FFD9E7780F0020000801407C05002030
:1028300040420F00000400400000002000E100E0E2
:102840004FF08052174B10B5C3F880200022164C71
:10285000164B94F8330083F82E20154AFF2812787F
:1028600013D1144B197801F0FF0371B9802A0ED0EF
:1028700094F848204021520748BF83F001030E48D6
:102880005BB1BDE8104000F0F2BE042A03D001F0B5
:10289000A1FC0123ECE70023EAE7BDE8104000F0CB
:1028A000E8BE00BF00E100E0780F00207C050020BA
:1028B000440F0020740F002000080140F8B54FF0CD
:1028C00080452B8ADF0740F1DA802B8A734E23F094
:1028D00001031B041B0C2B820023AB8496F82E30C3
:1028E0003446002B40F0CB806D4800F0BDFE318AAD
:1028F00020F0380001F03801014389B2684800F047
:10290000BFFE01216748FEF76AF9654800F0ACFE9A
:10291000F18920F00700014389B2614800F0B0FE60
:102920004FF00052604BB76A1A60012386F82E30D0
:10293000002F3FD196F82F3096F830209A4200F0C1
:102940009F8096F82F3006F13202DB00F1181A440E
:10295000B2628A8E013A92B2AA854A8E91F8360006
:10296000328496F8222082420ED01422424306F18D
:10297000840111443244D2F8902086F82200520893
:10298000C6E9012271623260626AB4F83801117CD2
:10299000234441402182106893F83710C840606199
:1029A00050689268C840A061CA4093F83800E2615C
:1029B00003F058FD3D4B1B78012B01D1FDF7DAFBED
:1029C0000023606A2268E3816369C1681A448A420D
:1029D00022600CD90123521A2260354A057CE3811A
:1029E00013682E074CBF03F1FF3301331360626895
:1029F000A3691A44914262600ED2E389521A62605E
:102A00002B4A43F00203057CE3815368ED064CBF7B
:102A100003F1FF3301335360A368E2691344994221
:102A2000A3600ED2E2895B1A42F00402E281204ADE
:102A3000017CA360936889064CBF03F1FF33013327
:102A400093601C4B1A78042A01BF9B79E2891340DA
:102A5000E381238C013B9BB223844BB9A36294F89E
:102A60002F300133DBB20A2B08BF002384F82F304C
:102A7000E389A28D5340E381002384F82E30F8BD12
:102A8000FFF7DEFE736A5B7C13B1384603F0EAFCA5
:102A9000BDE8F840042001F00FB900BF7C0500201C
:102AA000000801400004004000E100E05A0F00204F
:102AB000680F0020440F0020114A08B5138ADB0775
:102AC0001CD5138A0F4823F001031B041B0C13822F
:102AD000002393844FF000520B4BC3F8802000F08A
:102AE000C3FD0A4B20F00700998DBDE8084001F0B6
:102AF0000701014389B2034800F0C2BD08BD00BF11
:102B0000000400400008014000E100E07C050020D6
:102B100000232DE9F04117491C4691F8317091F8D6
:102B200032C01D4619461846134A144E9385A2F822
:102B3000383106F1060E47FA03F818F0010F18BFF6
:102B400036F813504CFA03F81CBF2843012518F03F
:102B5000010F18BF3EF8134003F101031CBF2143CE
:102B60000124032BE7D105B190850CB1A2F83811EF
:102B7000BDE8F081780F00207C050020688C0008FB
:102B800038B51E4CFFF75CFE3822002104F59E701C
:102B900005F0DAFF00212C22204605F0D5FF0023A6
:102BA0000122174D84F8782184F82F30C4F874314D
:102BB00084F8303084F82E30FFF7AAFFB4F83831AB
:102BC0002846238200F050FDA18D20F0070001F07F
:102BD0000701014389B2284600F052FD284600F063
:102BE00043FDB4F8381120F0380001F038010143FA
:102BF00089B22846BDE8384000F042BD7C0500207F
:102C00000008014038B50A4CD4F8745175B194F8F5
:102C10003D31D4F8581143F0010384F83D310846A2
:102C200005F038FD00236861C4F8743138BD00BF79
:102C30007C0500202DE9F04FAC4B8DB01B79DD07F2
:102C400000F11E83DFF8A8B29BF82F209BF87811C3
:102C5000914200F01583DBF87421002A4ED1A34F76
:102C60003A79540740F1D58002F0CCFDCBF87401DD
:102C7000DBF87441002C00F003839BF83D61F00702
:102C800040F1CA8000228BF83D210023DBF87461FB
:102C9000CBF85431D6F81C804FF07C50414605F0FB
:102CA000ADFD3A79044612F00201356A00F02A813E
:102CB00002228BF8502176690146304605F0EAFC85
:102CC0000146284605F0DCFB0021044605F080FEA5
:102CD000002800F004814146404605F0D3FB294618
:102CE00005F0D8FC0146304605F0CAFB03F06AFE49
:102CF000CBF860013A7942F008023A719BF8303023
:102D00009BF83C110893089A794B03EBC202DBF85D
:102D1000743182F8361001931B6ADBF84C111846A7
:102D2000079305F0ADFB00210A9005F051FE08B1B4
:102D300000230A93DBF86431DBF85CA10393DBF832
:102D4000683103990493DBF8543104980593DBF858
:102D50006031DBF858419BF85081099305F02EFE55
:102D6000002800F08F814FF002030027DBB20B93A5
:102D70000023BB465F4EDDF81C9002930696B8F127
:102D8000010F00F0CE81019B3046D969C0F09381DC
:102D9000B8F1030F40F0E28105F07CFC0746514694
:102DA000204605F06DFB394605F01CFE002800F0BA
:102DB0006C810399079805F063FB014605F062FBFF
:102DC00021460546504605F05DFB0146284605F0C4
:102DD00015FD012706465446BB46B846039D3146BD
:102DE000029805F04FFB02900146069805F00EFE92
:102DF000002800F0E5810299069805F041FB29467C
:102E00000646059805F0E4FD002800F0DF81A9469C
:102E1000B5E702F001FD29E79BF83C2114210132BE
:102E2000D2B2092A08BF00228BF83C214A43304B1A
:102E3000314D217C15441A4482F894102168E068D1
:102E4000C900C2F884106168CBF87C51C900C2F88F
:102E50008810A168C900C2F88C10C100C2F8901097
:102E600005F0C0FB216ACBF8440105F0C7FC014620
:102E7000CBF84801214805F0C1FC00233A79CBF892
:102E80004C019107CBF8403101D4320721D5DBF852
:102E9000601126F00806CBF85811084605F0FAFB39
:102EA0008BF83D61606100226A74154A92F84820EF
:102EB00093077FF5EAAE627C96067FF5E6AEE16A9F
:102EC0004FF07E5005F09AFC0122CBF86C016A7439
:102ED000DBE6606903F076FDCBF85801E3E70023F9
:102EE000CBF85441CBF8603104E700BF440F002019
:102EF0007C0500203EC32E39000600200000A03FC4
:102F0000780F0020CBF8645155078BF8501143D54A
:102F100000239846CBF86031DBF8740102F0AAFC7C
:102F20000146029005F0B6FBDBF8743105465E6998
:102F3000014630460193D3F820A005F067FD002834
:102F400042D02946304605F09BFA214605F0A2FB07
:102F50000146504605F094FA0021CBF8640105F0D3
:102F600041FD08B30222019B8BF85021D969084624
:102F700005F088FA514605F08DFB0146304605F014
:102F80007FFA03F01FFD9BF83D21CBF8600142F072
:102F900008028BF83D21ADE602F04CFC804603F0C0
:102FA00011FDCBF86001B7E74146284605F068FA05
:102FB000214605F06FFB0322029BCBF86801CBF89A
:102FC0005C318BF8502195E64146304605F058FAC1
:102FD000214605F05FFB514605F054FA4FF07C5155
:102FE00005F058FB0021814605F010FD002841D076
:102FF0004946504605F00AFD002839D0414628468A
:1030000005F03EFA214605F045FB4946CBF868013C
:1030100005F0DEFCC0B1029B2946CBF85C3130469E
:1030200005F0CCFC08B10122CBE73146284605F07B
:1030300027FA214605F02EFB0146DBF8640105F076
:103040001FFACBF8640155E6019BCBF86491D9696E
:10305000CBF86891084605F015FA494605F01AFBC9
:10306000414605F00FFA03F0ADFCCBF85C0141E6F8
:103070000222A6E70023DBF86021CBF86431CBF80D
:103080005C2137E64FF001036FE64FF07C51384684
:1030900005F000FB0146204605F0F2F9314605F047
:1030A000F9FA0146484605F0EBF90546394620464F
:1030B00005F0E6F932E005F0EDFA4FF07C510746F5
:1030C00005F0E8FA214605F0DDF9314605F0E2FAAF
:1030D0000146484605F0D4F905460146039805F037
:1030E00095FCB8B10399079805F0CAF9014605F0B7
:1030F000C9F921460546504605F0C4F9014628465F
:1031000005F07CFB012706465446DDF82C80039D24
:10311000BB4664E63946204605F0B4F9044601276B
:103120005DE63146504605F0B5FA0146484605F0E1
:10313000A7F905460146049805F068FC00283FF40D
:103140004EAE0499484605F09BF9514605F056FBF2
:10315000C3460646049D4FF0020840E605F09AFA81
:103160002146074605F034FCB0B14FF07C5138469B
:1031700005F090FA0146204605F082F9314605F047
:1031800089FA0146484605F07BF90546014605984F
:1031900005F01EFC002889D10599484605F070F914
:1031A000014605F06FF921460546099805F06AF9D0
:1031B0000146284605F022FB099C0646059DAEE720
:1031C0000A99284605F022FC00285CD17A4BBBF115
:1031D000000F01D083F850810FB1C3F85841764CED
:1031E000DFF8E881D4F87C3127465A7C1AB998F880
:1031F000043018071DD5019B5B7C13F0300349D0C8
:10320000019B1E6B52B1D4F86C11D4F8580105F033
:1032100041FA0146304605F03DFA0646304603F0D5
:103220002BF984F8700198F8043023F0080388F82B
:103230000430089BD4F84811DE0094F87031BA19B4
:1032400082F838302846019205F024FA834603F0CC
:1032500077FA8146D4F8440103F072FA494682466F
:1032600005F00EF905F018FC019A83B25386BBB93C
:1032700098F80420910713D542F0010288F8042041
:103280000DB0BDE8F08F4D49069805F0FBF80299A6
:103290000690B2E5002284F87031C8F81020C2E729
:1032A000D4F840110298039305F0ECF859460190C8
:1032B000504605F0E5F8019A0146104605F09EFAE1
:1032C0003F4A404912688246B2FBF1F048430192FE
:1032D00005F088F9514605F0DDF93B4905F0DAF9CA
:1032E00003F02EFA05F0D8FB4FF4FA51019A039B34
:1032F000B2FBF1F181423AD90022BB1983F83720A1
:10330000B0F5803F28BF4FF6FF733E4428BFB38619
:1033100094F8783138BFB08684F830300133DBB2AE
:103320000A2B08BF002384F87831D4F87431594649
:103330001D62C4F84491484605F0A2F8514605F0D4
:10334000A9F92946C4F84001D4F8540105F036FB28
:1033500000283FF477AC0021284698F8044005F097
:1033600055FB08B344F0010488F8044088E74FF4A3
:103370007A61B2FBF1F181420AD90121BA1982F8CE
:103380003710BA1992F837108B40C8405386B7E708
:103390004FF4FA61B2FBF1F2824288BF022107EBDF
:1033A000060298BF0321EAE714F00403DAD1C7F854
:1033B000743102F013FA45E47C0500203EC32E3937
:1033C0000000002040420F0000007042440F002027
:1033D000044B1B7813F07C0F1ABF034BD3F8580132
:1033E00000207047440F00207C05002030B5013AD2
:1033F00085B00446ADF8042000220139ADF808106C
:1034000001A91D46ADF80A20ADF80620FDF72CFBFA
:1034100001212046FDF7E3FB012220461146FDF77E
:10342000CEFB01212046FDF7B4FB4FF4407002F0C3
:103430008BFCB4F1804F0ED11C238DF8003001239A
:1034400068468DF801508DF802308DF8033002F097
:1034500085FC05B030BD054B9C4201D11D23ECE736
:10346000034B9C42EBD11E23E7E700BF0004004062
:103470000008004037B50121042000F001FE0323BD
:103480008DF8063010238DF80730402302AC1F4D15
:1034900024F8043D2146284600F090F8012104203C
:1034A00000F0EEFD072321462846ADF8043000F079
:1034B00085F80121042000F0E3FD38232146144C57
:1034C0002846ADF8043000F079F8E3694FF0804009
:1034D00043F00103E36101231A461946FFF786FF13
:1034E000E3690C4843F00203E36101231A461946DD
:1034F000FFF77CFF4FF00052074BC3F880204FF0DE
:103500008052C3F8802003B030BD00BF00080140E6
:10351000001002400004004000E100E0002370B50C
:103520001E46050FECB2092D94BF3034373401F834
:10353000134001EB430401336670DCB2A2424FEA50
:103540000010EED870BD08B5002000F093FDBDE876
:10355000084001214FF4000000F09EBD07B54FF474
:10356000C06002F0F1FB4FF48A73ADF80430002321
:103570008DF80630012301A88DF8073002F0EEFB2C
:1035800003B05DF804FB7047094B10B518685C6820
:1035900008331B68C0180AD008220649FFF7BEFF8F
:1035A0002046BDE8104004220349FFF7B7BF10BD15
:1035B000E8F7FF1F1600002026000020CA782DE93A
:1035C000F041D30648BF8B780E8802F00F0548BF44
:1035D0001D4316F0FF0F1AD000214FF0010C4FF0E1
:1035E0000F0E03680CFA01F737EA06040BD18C00C2
:1035F0000EFA04F823EA080305FA04F4282A43EA39
:10360000040326D1476101310829EBD10360FF2E65
:103610001DD908244FF0010C4FF00F0E41680CFA31
:1036200004F737EA06030ED104F18043083B9B0000
:103630000EFA03F821EA080105FA03F3282A41EA01
:1036400003010AD147610134102CE8D14160BDE883
:10365000F081482A08BF0761D5E7482A08BF0761FB
:10366000F1E7806880B27047C06880B2704701613E
:103670007047416170470AB101617047416170470D
:10368000C16070470028164A30B500F44015B4BF39
:10369000D3695368B5F5401F84B210D1556823F043
:1036A000706325F07065556019B1420D12019440A8
:1036B00023430B4A0028B4BFD361536030BDC2021C
:1036C0004DBF0322420D1201C0F303454CBFAA4077
:1036D00004FA02F223EA020343F07063E4E700BF56
:1036E0000000014010B50F2401F0030301F0FC01BC
:1036F00001F1804101F580318A689B009C4022EAFB
:1037000004028A608A6898401043886010BD0000F7
:10371000034B9B7A13B10522024B1A60704700BF1E
:10372000180F0020000700200422014B1A60704788
:1037300000070020034B1A78202A04BF00221A70C9
:10374000704700BFFC06002070470000212810B51C
:1037500008D1104B1B681B7803F07F03212B16D078
:10376000022013E02028FBD10A4B1B681B7803F0D2
:103770007F03212B084B1870F2D1084B0024054A17
:1037800020461268936154829847204610BD044B2E
:10379000F4E700BF380F0020FC060020F1370008D6
:1037A000D9370008074B1B681B7803F07F03212BD8
:1037B00006D100F0DF00022814BF0220002070476D
:1037C00002207047380F002021B901288CBF022049
:1037D000002070470220704720B90822024B1B6866
:1037E0001A82704701487047380F002030000020CF
:1037F000FFF7F2BF10B50024FFF7C6FE044B1B68AD
:103800009C7200F095F801F0E1F9024B1C6010BDCC
:10381000380F00200007002010B50024324B334A37
:103820001B68D2795C815A722046FDF741FE4FF445
:1038300000712046FDF744FE10212046FDF74EFEA4
:1038400040212046FDF7EAFE80212046FDF7D6FE06
:103850002046FDF7ABFE264B204693F83410FDF7CB
:1038600017FF2046FDF77FFE21460120FDF728FEC9
:10387000C0210120FDF7C2FE20210120FDF72EFE10
:1038800021460120FDF743FE4FF4C0610220FDF701
:1038900017FE4FF480710220FDF7B0FE2146022092
:1038A000FDF735FE20210220FDF718FE21460320FA
:1038B000FDF706FE4FF488710320FDF7AFFE4021AF
:1038C0000320FDF7E5FE4FF440510320FDF71FFEF6
:1038D00021460320FDF702FE2046FDF713F80122E2
:1038E000044B1A6010BD00BF380F0020128C000876
:1038F00030000020000700200149FCF70FBE00BF88
:10390000680000200149FCF709BE00BF70000020DC
:10391000054B1B68DB78042B04D8044901EBC30179
:10392000FCF7FCBD00207047380F00207800002015
:1039300008B50120FFF727FE01220020054B0649AC
:103940001A60064A186010604FF4E0520A801A604C
:1039500008BD00BF405C00403C0F0020445C0040BC
:10396000064B074A0749136002221A72064B074AA0
:103970001360074A1B681160184700BF180F00202A
:10398000380F00209800002038000020100F002081
:10399000340F00202DE9F34101213848FFF772FE72
:1039A0000121102000F06CFB02238DF8063010235B
:1039B0008DF807304FF4005302A921F8043D304838
:1039C000FFF7FCFDFFF7BFFDFFF7C8FDFFF7C8FFDE
:1039D00001F09CFB02F058FE2A4A2B4C136800258C
:1039E00023F00403136002F0F3F901F00BFEFFF77C
:1039F00041FD00F083F80023244A2370C2E900331C
:103A00009360234B204F93F84830224EDB0644BF8F
:103A10000123237014220021384694F8008005F019
:103A200093F86423E371237263721B4B84F8008064
:103A30001D701A4BC6E900551D70194BB5601D70FD
:103A4000184B1D70184B1D7002F092FAFDF712FF13
:103A500002F086FCFCF7B6FF02F090FAFCF756FB8A
:103A600001F0B0FEFFF78CF802F0D2F8FDF718FF76
:103A700000F024FDFDF73CFBCCE700BF0004300064
:103A80000010014010E000E0440F0020680F00200B
:103A9000780F00205C0F00205A0F0020590F0020E3
:103AA000740F0020400F0020580F002042F22832EF
:103AB000074B5A6000229A6001221A601A6802F0CD
:103AC0000112012AFAD000221A609A60704700BFE2
:103AD00010E000E010B5074C4FF400512278064882
:103AE000FFF7C9FD237813F1FF3318BF01232370BB
:103AF00010BD00BFBE000020001001401FB5012115
:103B0000092000F0BDFA03234FF4F0748DF8023061
:103B1000482304A921F8104D17488DF80330FFF70A
:103B20004DFD05210120FFF7DDFD06210120FFF7F6
:103B3000D9FD07210120FFF7D5FD08210120FFF75E
:103B4000D1FD002302948DF80C3001240C2302A82F
:103B50008DF80D308DF80E4000F0B6FB40F21723C3
:103B6000ADF80430022301A88DF806308DF8074027
:103B700002F0F4F804B010BD000C014008B50A488A
:103B8000FFF76FFD68B180F020034106C3F34013D7
:103B900058BF43F00203020601D443F00403184661
:103BA00008BD0346FBE700BF000C014008B54FF419
:103BB000F07000F0CBFBFFF7E1FF40B1C10707D584
:103BC00001F07AFA4FF40002094BC3F8802108BDD6
:103BD000420705D5074A137843F002031370F1E753
:103BE0008307EFD5034A137843F00803F6E700BFD5
:103BF00000E100E0590F00200020704738B504466E
:103C000000252146284601F0ABFB40B90721207072
:103C1000204600F037FE05B138BD0125F1E72378D5
:103C2000002BF8D02046FDF743FE0146F0E70000E8
:103C300008B5FDF7F3FA0022014B1A7308BD00BF67
:103C4000440F002010B50C4650F8210004F0CEFCC3
:103C5000024B53F8241004F0D1FD10BD780F002062
:103C600070B505460E460024E1B23046FFF7EAFF84
:103C700045F824000134032CF6D170BD2DE9F04144
:103C80004FF000080B4E051F00F1080455F8047FA3
:103C90004146384604F0BAFE48B956F8041F384683
:103CA00004F096FE18B9A542F0D1BDE8F0810120DC
:103CB000FBE700BF980F002072B6034A1378184341
:103CC000107062B6704700BF590F00207FB5012306
:103CD00044780546432C8DF8073003D00BD884B1C7
:103CE000242C4ED1AD78D5B9432C37D01DD8242CF7
:103CF00028D0002407E04A2C08D0582CF2D0472CBA
:103D0000EFE700F0E1FB204604B070BD9F4B1B784D
:103D100013F0DF0F40F0388183783D2B01D003246E
:103D2000F1E7FDF7C5FD0446EDE7472C13D0582C0D
:103D3000DFD1964C2378012BDBD1032000F07AFBF6
:103D40002570D6E7914B1C7814F0180440F01C81C4
:103D500000F0C0FBD7E700F0EFFCCAE78B4B1C7804
:103D6000022C05D101F0A8F9052000F063FBC0E7A3
:103D7000002C40F00981022204201A7000F05AFB46
:103D8000C1E7824E3378012B00F2FE80492C5CD0D3
:103D900005D8232C27D0482C2BD00024A3E0522C6C
:103DA00071D0532C41D04E2CF7D10222AC788DF833
:103DB0000720002C40F094802946204601F0D0FADC
:103DC000002800F085802946204600F045FD294660
:103DD000012001F0C5FA044600287DD029460120C3
:103DE00000F03AFD85E7AC78002C98D100F04AFC51
:103DF00089E7674B93F84830DB0640F1C380042322
:103E0000A878337000288AD101F0D2F87478002C99
:103E10007FF46FAF3470FEF713FDAB78002B7FF4A7
:103E200068AF2846FFF7EAFE6DE7AB784C2B7FF4CE
:103E300076AFEB78502B7FF472AF2C79002C7FF4A7
:103E40006EAF8020FFF738FF5DE70223AC788DF876
:103E5000073034B9284601F099FA284600F024FDCD
:103E600051E73D2C7FF45BAF0323EC5CEA18013390
:103E700002F8034CDBB2002CF7D128468DF807304E
:103E800001F0CCF93FE7AB78532B7FF448AFEB78E8
:103E9000542B7FF444AF2B793D2B7FF440AFAB79AB
:103EA000002B7FF43CAF6B79242B06D02A2B0DD04E
:103EB000232B7FF434AF022000E0012001F0D2F97F
:103EC000092000F0B7FA01F0F7F812E7FF20F5E754
:103ED000072000F087FA7AE7072000F083FA12E75C
:103EE000002B51D1012402AA0DF10701284600F050
:103EF000DFF808B9022406E79DF807305A1CEB5C8E
:103F0000D2B23D2B8DF807207FF409AFE4B1134600
:103F1000EC5C981AE9182C5409780133DBB20029BB
:103F2000F6D128468DF80730FDF7C2FC044600287C
:103F30007FF4E9AE029802F031FD04F0ADFD2946B0
:103F4000C0B201F05BF9DEE603AA0DF107012846D5
:103F500000F0AEF80028CDD09DF80730EB5C002BC8
:103F60007FF4DDAE029C0B49204604F04FFD002893
:103F70007FF4D5AE204604F08FFD0399C0B201F066
:103F800043FAD0E60524BEE60824BCE6440F002030
:103F9000780F002000007F4372B6034A137823EAAB
:103FA0000000107062B67047590F002072B6034AC5
:103FB00013781843107062B6704700BF740F00206A
:103FC00072B60022014B1A7062B67047740F00205F
:103FD00072B6034A13781843107062B6704700BF78
:103FE000400F002072B6034A13781843107062B66F
:103FF000704700BF580F002072B60022014B1A70A4
:1040000062B67047400F002072B60022014B1A7052
:1040100062B67047580F002038B5CB68054603607C
:10402000037A01F1340443F0040303720F4B93F855
:1040300048309B0610D429460D4D204600F0E8FD7F
:104040002C7884B901F0E8FB68B120232B70FEF7CF
:10405000F1FDFEF7B7FB07E02046FFF70FFE002853
:10406000E9D00F2400E00024204638BD780F00205E
:10407000440F0020014B1860704700BFD800424237
:10408000044B9A6911B110439861704722EA00000D
:10409000FAE700BF00100240044BDA6911B1104387
:1040A000D861704722EA0000FAE700BF0010024022
:1040B0002DE9F84F0B789146C218C35C06462D2BAC
:1040C000884618D101275378951C00210A460C46D2
:1040D0000846303BDBB2092B19D80132D2B2082A8C
:1040E00010D809B1013C64B200EB800003EB400042
:1040F00015F8013BEDE72B2B12BF551C951C53788F
:104100000027E2E70029F3D1013464B2F0E7FE2B87
:1041100002D109B90121EBE7D2B104F063FA002121
:10412000824604F04BFC48B9DFF85CB0631C12DB3C
:1041300019D15046134904F0ADFA82460FB10AF185
:10414000004A0122AD1B013DC9F800A088F80050CB
:104150001046BDE8F88F5046594604F09BFA0234E9
:10416000824664B2E2E7002CE8D0DFF820B0504687
:10417000594604F08FFA013CE3B282465CB2002B50
:10418000F5D1DBE7CDCCCC3D0AD7233C0000204164
:1041900070B50E460D4904F07DFA02F0D1FA04F034
:1041A0007BFC0B4D84B27CB16B786BB93EB9FCF7EC
:1041B000CBFE3220013CFFF779FCA4B2F3E7FCF719
:1041C0001DFDAB789B07F4D570BD00BF0000A0417A
:1041D000440F002038B504464FF6FF75013CA4B2E9
:1041E000AC4200D138BD0120FFF760FCF6E738B5DE
:1041F0000D46014604F04EFA29460446284604F0CE
:1042000049FA0146204604F03DF9BDE8384002F085
:10421000D9BB2DE9F84300250446A946061F00F145
:10422000080856F8047F4946384604F0C7FB40B9F1
:104230003946384604F02EFA0146284604F022F9A1
:1042400005464645EDD1284602F0BCFB0646014630
:104250004FF07E5004F0D2FA05460146206804F083
:1042600019FA29462060606804F014FA2946606053
:10427000A06804F00FFAA0603046BDE8F8830000A3
:104280002DE9F8430746884600244FF000090D4DFC
:1042900058F824604946304604F090FB60B9314636
:1042A00057F8240004F0AAFA20F0004629463046C8
:1042B00004F0ACFB00B935460134032CE8D12846A4
:1042C000BDE8F883FFFF7F7F027930B58379056809
:1042D00002F1804202F58232E9431BB3134B1C68A2
:1042E0000C401C605C6821405960116829431160D2
:1042F00002689C68D1430C409C60DC682140D96016
:104300004179102906D1996811439960D9680A4307
:10431000DA6030BD01F1804303F5823319680A4346
:104320001A60F6E713680B401360F2E700040140DF
:10433000054B1A685B69034004D0024214BF012098
:10434000002070471846704700040140014B586137
:10435000704700BF000401400148FDF7CEB900BF1F
:10436000448D000808B55D2001F034FDBDE808402B
:10437000FFF7F2BF10B504460068FDF753FA2C2092
:1043800001F028FD6068FDF74DFA2C2001F022FDB8
:10439000A068BDE81040FDF745BA10B504462420DA
:1043A00001F018FD2046FDF7B1F9BDE810403D20B1
:1043B00001F010BD10B50C46FFF7EFFFE0B2FDF7BE
:1043C000A5F9BDE81040FFF7C7BF38B50C46154644
:1043D000FFF7E3FF29462046FDF7C0F9BDE8384066
:1043E000FFF7BABF10B5044620B9BDE81040064833
:1043F000FDF783B90548FDF780F92046FDF786F9FA
:10440000BDE81040FFF7A8BF7A8C00087F8C000839
:1044100010B504460648FDF770F92046FDF776F919
:10442000FFF79AFFBDE810404FF4FA70FFF7D2BED5
:10443000868C000810B504461448FDF75EF9601E2E
:104440000A280AD8DFE800F0060D0F111315171916
:104450001B1D1F000E48FDF750F9BDE81040FFF787
:1044600081BF0C48F7E70C48F5E70C48F3E70C4828
:10447000F1E70C48EFE70C48EDE70C48EBE70C4898
:10448000E9E70C48E7E70C48E5E700BF8D8C00083A
:10449000938C0008A58C0008B98C0008CB8C000810
:1044A000D38C0008DC8C0008E78C0008F48C000832
:1044B000FC8C00080F8D0008218D00080148FDF7D5
:1044C0001CB900BF2A8D00080148FDF716B900BFCE
:1044D000478D00082DE9F047594C002094F8301022
:1044E000FFF768FF94F833100120FFF763FF94F89B
:1044F00031100220FFF75EFF94F832100320FFF71F
:1045000059FF94F848100420C1F38001FFF752FFCF
:1045100094F848100520C1F38011FFF74BFF94F980
:1045200048100620C90FFFF745FF94F834100A2001
:10453000FFF740FF0322A16B0B20FFF746FF03228A
:10454000E16B0C20FFF741FF94F848100D2001F0BB
:104550000101FFF72FFF94F848101420C1F3401118
:10456000FFF728FF94F848101520C1F3C001FFF7AA
:1045700021FF94F848101620C1F30011FFF71AFF2D
:1045800094F849101720FFF715FF0322E16C18205B
:10459000FFF71BFF0322216D1920FFF716FFB4F868
:1045A00054101A20FFF706FF0322A16D1B20FFF70E
:1045B0000CFF0022216C1E20FFF707FF0022616C18
:1045C0001F20FFF702FF94F848102020C1F340019C
:1045D000FFF7F0FE4FF000086425DFF86890002632
:1045E0005FFA88F705EB060A022F5FFA8AFA4FEAAC
:1045F000860317D0032F1DD0012F13BF03220322E0
:104600001B19E15808BFD96850460136FFF7DDFE97
:10461000032EE7D10A35EDB28C2D08F10108DED169
:10462000BDE8F08723444946986904F0E7F803227F
:104630000146E9E72344596A3A4601F10041E3E7BC
:10464000780F0020000061451FB50B48FDF755F8B5
:104650000A4901A8FFF704FB01A8FFF78BFE3A20E7
:1046600001F0B8FB064B5879FDF750F8FFF77AFEDA
:1046700005B05DF804FB00BF918D00085C0F0020C1
:10468000440F00202DE9FF410025234E234FDFF882
:10469000A480ECB201A9204600F089FE50B9204860
:1046A000FDF72BF80720FDF731F8FFF755FE04B0B2
:1046B000BDE8F0813046FDF720F8062C07D0072C26
:1046C00027D004F13600C0B2FDF720F802E03846EA
:1046D000FDF713F83A2001F07DFB013501A8FFF743
:1046E00049FEFFF73FFE082DD3D10E48FDF705F830
:1046F0000D48FFF73FFEFFF735FE0C48FCF7FDFFC6
:104700000B4B186CFDF78EF8FFF72CFEFFF79CFFA4
:10471000CDE74046DCE700BF978D00089A8D000882
:104720007F8C0008A08D0008BC0E0020A68D00081C
:10473000880E00209D8D000810B53F4C3F48FCF7C7
:10474000DCFF20788B2805D93D48FCF7D6FF207880
:104750007630C0B2FCF7DAFF3A48FCF7CEFFA0791A
:104760003630C0B2FCF7D2FF3648FCF7C6FF2079DE
:104770001130C0B2FCF7CAFF3248FCF7BEFFA07888
:10478000C0F11500C0B2FCF7C1FF2E48FCF7B5FF21
:10479000E0785A30C0B2FCF7B9FF2A48FCF7ADFF09
:1047A0006078C0F15E00C0B2FCF7B0FFE3797BB186
:1047B0002548FCF7A2FFE079032806D01E2801D087
:1047C000022805D1FCF7A2FF02E0302001F002FB35
:1047D0001D48FCF792FF637A102B04D0202B27D0C2
:1047E00023B9352000E0332001F0F4FA1648FCF735
:1047F00084FF1548FCF781FF237ADBB1382001F0F4
:10480000E9FA1248FCF779FF207DFCF77FFF10489A
:10481000FCF773FF2069FDF719F80E48FCF76DFFF0
:10482000E0680021FCF79AFFBDE81040FFF79ABD51
:104830003420D9E73920E2E7880E0020AC8D00084B
:10484000B28D0008B68D0008B98D0008BC8D000837
:10485000BF8D0008C28D000838B505460C460848D3
:10486000FCF74BFF2846FCF751FF3D2001F0B2FA60
:104870002046FCF742FFBDE83840FFF76DBD00BFA2
:10488000C58D000838B505460C463E2001F0A2FA59
:104890002846FCF732FF3A2001F09CFA2046BDE89A
:1048A0003840FFF79FBD000010B504460E48FCF7E6
:1048B00024FF2046FCF721FFFFF754FD0B48FCF7CF
:1048C0001CFF562001F086FA2C2001F083FA2320E9
:1048D000FCF71CFF2C2001F07DFAFE20FCF716FFF0
:1048E000BDE81040FFF73EBDC88D0008DC8D000814
:1048F0002DE9F04FA04A8BB001AB04AF07CA9F4C23
:1049000083E8070019463846FFF7AAF93C2001F072
:1049100061FA2378082B00F0A58000F28580012B36
:1049200000F0A680C0F09A80022B00F0A380042B38
:1049300000F09C80924B93F83480994618F001085F
:1049400000F0AA80237B002B00F0A6808D48FCF7A6
:10495000D4FE3846FFF70EFD99F834309A070DD58E
:104960008948FCF7CAFE01F063F9FCF7CFFE2C2062
:1049700001F030FA01F01EFAFCF7C8FE8348FCF79C
:10498000BCFEFEF725FDFCF761FF2C2001F022FAAA
:1049900000212069FCF7E2FE01F044FB0646FFF728
:1049A000EDF80546FBF7D6FB46EA0503034313F093
:1049B000FF0F074626D07648FCF79FFE17B1502020
:1049C00001F008FA76B1F30702D5582001F002FA97
:1049D000B70702D5592001F0FDF9760702D55A2014
:1049E00001F0F8F975B1E80702D5522001F0F2F9AB
:1049F000A90702D5482001F0EDF96A0702D5532036
:104A000001F0E8F9237B002B6FD0013B2373E37A9D
:104A1000002B7CD0013BE3723E2001F0DBF9FFF775
:104A20009BFC0BB0BDE8F08F202B1DD00FD8102BB6
:104A300080D194F90230002B16DB5648FCF75DFE5E
:104A4000A378DE0724D5302001F0C4F972E7402BAB
:104A500012D0802B7FF46EAF4F4800E04F48FCF738
:104A60004CFE67E74E48FAE74E48F8E74E48F6E74F
:104A70004E48F4E74E48F2E74E48FCF73EFEA37876
:104A80001D0701D53320DFE7580703D59906DAD58E
:104A90003120D9E73220D7E70025474E0DF11C0B16
:104AA000D6F840A0303656F8080C56F8041F03F02C
:104AB000E9FC022D4BF8250003D1514603F0E2FC3E
:104AC0000990B8F1000F07D157F825005BF82510C1
:104AD00003F0D6FC47F825000135032DE3D1B8F1EA
:104AE000000F7FF433AF354831E7237813F07C0FA4
:104AF00014BF1D2309232373E37A0BB90123E37247
:104B00002F48FCF7FAFD07A8FFF734FC7FE723786E
:104B10002C4813F07C0F14BF13230923E372FCF716
:104B2000ECFDE079FCF7F2FD2C2001F053F9207A3E
:104B3000FCF7ECFD2C2001F04DF9607AFCF7E6FD66
:104B400001F000FC0446FBF72DFF054614B90028D0
:104B50003FF462AF1C48FCF7D0FD2CB1012C0CBF18
:104B60005320432001F036F9EB077FF555AF46207F
:104B700001F030F950E700BF680F0020440F00201B
:104B8000780F00201A8E0008288E00082D8E00084D
:104B9000328E0008F38D0008148E0008EA8D00089C
:104BA000EF8D0008F98D0008FD8D0008028E0008C9
:104BB000088E00080E8E0008880E0020218E000846
:104BC000378E00083D8E0008428E00080020044BFE
:104BD000044A18604FF406431380034A1360704779
:104BE000445C00403C0F0020405C004070B500F089
:104BF0007F0528460E46FCF76BFD04462846FCF769
:104C00002BFD22460146304601F0C7FC204670BD10
:104C1000F8B5174C074694F848200D4612F0200FBF
:104C2000144E04D03378202B01D001F06BFB337885
:104C3000022B1BD0FCF788F97378BBB900F00EFE8D
:104C400010B1FBF7D0FFF5E72946384600F088FEA3
:104C500060B994F848309A0708D52B7ADB0605D559
:104C600069681020BDE8F84001F076BCF8BD00BFCF
:104C7000780F0020440F00202DE9F04F1D46934689
:104C80008FB09DF864609DF8702055F82640B30001
:104C9000CDE9011003925BF826100BEB03022046CE
:104CA000EB180892099303F0EDFB9DF868800590DE
:104CB0004FEA88030BEB0302EB1855F828505BF81A
:104CC000281028460A920B9303F0DCFB029B0599FF
:104CD000069053F8260003F0D3FB029B0646069984
:104CE00053F8280003F0CCFB04F100448046314621
:104CF000204603F0CFFC05F1004581464146284699
:104D000003F0C8FC0146484603F0BCFB414681461F
:104D1000204603F0BFFC31468046284603F0BAFC2B
:104D20000146404603F0ACFB4946189F9DF86CA035
:104D300001F046FE039A0646002A3ED003F05AF8D8
:104D400089A3D3E900238046894603F031FB48B1AB
:104D500087A3D3E900234046494602F0EBFE03F067
:104D60003BFB0646864B3946D3F83C80384603F079
:104D700089FB414603F084FB414603F08BFC01F0C4
:104D800021FE4FF07C518046304603F083FC3946CB
:104D900003F080FC414620F0004003F02FFD01F0BD
:104DA0004FFD03F079FE83B20393CBB9DDE9011027
:104DB0000FB0BDE8F04FFFF72BBF03F01BF86EA359
:104DC000D3E900238046894603F0E8FA0028C9D0D9
:104DD00067A3D3E900234046494602F0ADFEBEE793
:104DE000019B03981F7A03F001FC3B07804609D51D
:104DF000019B0146186803F04DFC019B27F0080752
:104E000018601F724146304603F0F8FC0BEB8A0332
:104E10000493029B07465BF82A1053F82A0003F01C
:104E20002FFB414603F0EAFC39460C90384603F06C
:104E300031FC01464FF0804003F022FB5149064609
:104E4000384603F027FC4FF081418046304603F09E
:104E500019FB0146404603F01DFC4FF07C510790C2
:104E6000304603F017FC012680464FF00009039AF4
:104E7000B3B29A429AD9B9F10B0F3FD8079920469D
:104E800003F008FC41468246284603F003FC014635
:104E9000504603F0F7FA41468246204603F0FAFBFB
:104EA00007990446284603F0F5FB0146204603F027
:104EB000E7FA5546044609F101095FFA89F90599AF
:104EC000204603F0DFFA089B06991860284603F095
:104ED000D9FA0A9B0C991860049B0136186803F0F4
:104EE000D1FA049B019918605846FFF791FE264BB2
:104EF0005B78002BBBD00FB0BDE8F08F304603F0DD
:104F000075FB394603F0C6FB044601F05DFC8146A3
:104F1000204601F005FD099B0B9A1B68824603F1B0
:104F200000431846494615680D9303F0B3FB5146FC
:104F30000446284603F0AEFB0146204603F0A2FAE1
:104F40000D9B51460446184603F0A4FB4946824691
:104F5000284603F09FFB0146504603F091FA4FF0BC
:104F600000090546ABE700BF8DEDB5A0F7C6A0BEB2
:104F7000182D4454FB2119408DEDB5A0F7C6A03E75
:104F8000780F0020ABAA2A3E440F002010B5074B33
:104F900004461B78022B07D0FCF740F92046BDE8F9
:104FA00010400021FFF7F4B810BD00BF440F0020EF
:104FB00008B501F02FF8042001F092F8032001F069
:104FC0008FF8FBF7C1FF094B5B786BB9FCF768FC06
:104FD00000F01EFE4FF4E050FFF7B8F94FF4807276
:104FE000034BC3F884215A6008BD00BF440F002062
:104FF00000E100E02DE9F8432B4C804623788946F8
:10500000022B174625464DD0FCF708F9667816B1F5
:105010000220BDE8F883C7F3C0006671FBF794F87F
:10502000FBF798F840B10420FEF7C0FFFBF78CFFB8
:105030003046FBF789F8EBE740464946FFF7E8FDC5
:1050400001231A4C02202370FEF736FEFBF77CFF8B
:105050006B78002BDCD12B78002BF7D12378012B38
:105060001DD1FB0617D5124B124A07CA83E8070069
:1050700000202070FBF768F8FBF766FFFDF780FD66
:1050800000F0A0FB00F0C4FDFFF7DEFA6879003005
:1050900018BF0120BDE70520FEF788FFE8E70123E0
:1050A0006B71E5E70020B4E7440F00205A0F0020A1
:1050B0005C0F0020680F002008B5114B1B78DB0641
:1050C0001DD41020FEF7F8FD01F044F9FBF774FC45
:1050D0000C4A137813F02C0F03D1127912F0060F3B
:1050E0000DD0042B09D1084B1B7813B90620FEF70D
:1050F0005DFFBDE80840FDF7A3BB0320F7E708BD4F
:10510000590F0020440F0020740F0020034B044A65
:105110005A6002F188325A60704700BF0020024096
:1051200023016745084BDA68D10709D4DA685207CA
:1051300008D4DB6813F0100F14BF0320042070475D
:1051400001207047022070470020024010B504463D
:10515000FFF7E8FF012806D10CB9052010BDFFF7C5
:10516000E1FF013CF6E7002C08BF0520F6E7000050
:1051700038B505464FF43020FFF7E8FF042813D177
:105180000A4C4FF43020236943F002032361656128
:10519000236943F040032361FFF7D8FF236923F01D
:1051A0000203DB04DB0C236138BD00BF002002409A
:1051B00070B505464FF400500E46FFF7C7FF0428B0
:1051C0000FD1084C4FF40050236943F001032361D1
:1051D0002E80FFF7BBFF236923F00103DB04DB0C08
:1051E000236170BD002002407047FEE7FEE7FEE746
:1051F000FEE770477047704701F0E2B938B50546E1
:105200000C46FCF70BF8512303FB05F02146BDE8E3
:105210003840502200F5407001F062BA0146502239
:1052200040F2AE3001F05CBA38B505460C46FBF7EB
:10523000F5FF0D2303FB05F02146BDE838400C22A5
:1052400000F5007001F04CBA08B50A21002001F009
:1052500041FABDE808405C220149012001F040BA52
:10526000780F002030B5C30785B0054635D5334BE0
:10527000334A3448DA64344A344C1A65FA22A3F8C3
:1052800054204FF07F529A65314AC3E90E02002242
:10529000C3E910424FF44472A3F848202D4AC3E9F1
:1052A00000229A6002F59C02C3E903225A6102F1CE
:1052B000816202F55052C3E906221A62264A5A62F6
:1052C00002F59C029A62A2F1A772DA62234A1A637B
:1052D000012283F83420FFF7B7FFA9070AD500247D
:1052E000CDE901440394E0B201A90134FFF79CFF2A
:1052F000082CF8D16A0713D500214FF4407001F053
:10530000E9F9002140F2013001F0E4F9002140F216
:10531000513001F0DFF9002140F2523001F0DAF9AA
:105320002B0709D5002140F2AE3001F0D3F900215E
:1053300040F2AF3001F0CEF905B030BD780F00205B
:105340000000C8410AD7233C0000FA430000C842CD
:105350006F12033B0000C843000048C30A07070060
:1053600070B50D46512141430646502201F540716A
:10537000284601F0CDF9044630B928702946304658
:10538000FFF73CFF204670BD0120FCE738B55022F6
:1053900040F2AE31054601F0BBF9044628B9287049
:1053A0002846FFF73BFF204638BD0120FCE770B5DB
:1053B0000D460D21414306460C2201F50071284699
:1053C00001F0A6F9044648B9002330462B606B6013
:1053D000AB602946FFF728FF204670BD0120FCE79F
:1053E00008B5002001F070F90A2808D15C220121DB
:1053F000044801F08DF9003018BF012008BD0020DD
:10540000FCE700BF780F002070B50D460446002170
:10541000284603F0DDFA002840F0E780632C2FD9FE
:10542000A4F16403DBB2022BC2B220D8022A734E6D
:105430000CD0032A15D0012A0ABF06EB830346F8D5
:105440002350DD60FFF700FF002070BD6C49284647
:105450009C1D03F01FF96A4903F01CF946F824006B
:10546000F0E706EB830305F100455D62EAE7092BEF
:1054700040F2BD800130042800F0B9800A3BD1E73A
:10548000284601F08BFA03F007FBC0B2202C00F293
:10549000AE80DFE804F011181C2226323CACACAC24
:1054A0004B4F5255ACACACACACAC636F7D878B8EC4
:1054B0009195ACAC989DA000022840F29A804F4B89
:1054C00083F83000BEE74D4B83F83300BAE74B4B0F
:1054D00083F83100FDF71CFBB4E7484B83F832003A
:1054E000F8E7464A92F8483020B143F0040382F8C6
:1054F0004830A7E723F00403F9E7404A92F8483020
:1055000010B143F04003F2E723F04003EFE73B4ADA
:1055100092F8483038B163F07F03002082F84830B9
:10552000FAF712FE8EE703F07F03F6E7334B83F8BA
:10553000340087E7314B9D6384E7304BDD6381E7BF
:105540002E4A92F8483030B143F0010382F84830D7
:10555000FEF76EFB76E723F00103F7E7274A92F8A0
:10556000483020B1D90646D543F02003BFE723F0E9
:105570002003BCE7214A92F8483030B143F00803D9
:1055800082F8483000F0FAFC5CE723F00803F7E704
:105590001A4A92F8483010B143F01003A7E723F0FD
:1055A0003003A4E7154B83F849004BE7134BDD6448
:1055B00048E7124B1D6545E7104BA3F8540041E73F
:1055C0000E4B9D653EE70D4B1D6400F0C9FE39E7AB
:1055D0000A4B5D64F9E7094A92F8483010B143F08C
:1055E000020384E723F0020381E704202DE7032070
:1055F0002BE7062029E70A2027E700BF780F0020C5
:105600000000704208B5FFF7EBFE48B90720FEF72F
:10561000E9FEFF20FFF726FEBDE80840FEF75ABF6F
:1056200008BD00002DE9F04F5E4D85B02C786F78F5
:10563000002C08BF2424013CE4B2A7426FD03426DA
:1056400006FB0458D8F82010D8F81C90084602F041
:1056500019FFD8F8241003F01DF88046014648468B
:1056600003F0B6F900B1C846002C06FB04F608BFEB
:105670002424013CE4B2AB19A742C3F81880DFF838
:1056800028912FD04FF034084E446B78A3422FD08E
:10569000002C274608FB049A08BF242495F85437A9
:1056A000013CE4B2A34201D1FDF7ACFA08FB075775
:1056B000D7F81CB0B869594603F080F980B9396A47
:1056C000084602F0DFFE796A02F0E4FF716902F039
:1056D000D9FE06460146584603F098F910B3BE615C
:1056E0005646D2E795F85437BB4201D1FDF78AFA06
:1056F00095F801A034260AF10104E4B2242C08BF75
:1057000000244FF0000806FB0A9B2B780293029BB3
:10571000A3420AD1B8F1000F01D085F801A005B06D
:10572000BDE8F08FC7F818B0DAE706FB04F709EB1D
:1057300007030393DBF814302F440093BB690098F0
:105740001946019303F044F9B0B1DBF81C10084688
:1057500002F098FEDBF8201002F09CFF009902F0A6
:1057600091FE83460146019803F050F920B1A2460C
:105770004FF00108C7F818B006FB0452D1699069D0
:1057800003F01CF9002818BFA24604F10104E4B29A
:1057900018BF4FF00108242C08BF0024DDF80CB01E
:1057A000B5E700BF04070020080700200022012100
:1057B000034B83F854271A7083F855175A707047B3
:1057C0000407002008B51C220021034803F0BCF99F
:1057D000BDE80840FFF7EABF5C0E0020084B93F8D5
:1057E00054171A788A420AD04A1CD2B2242A08BF17
:1057F0000022587883F85427884208BF5A707047AF
:10580000040700203420034B1A1D1B7800FB0320E3
:10581000704700BF04070020054B93F854071A781F
:1058200082421DBF3422043302FB00300020704747
:1058300004070020084A92F8543711780133DBB28C
:10584000242B08BF002399421DBF342101FB0323F1
:1058500098690020704700BF04070020044B93F8AC
:10586000540793F85537C31A58425841704700BF40
:105870000407002038B5437C0546DA07C46A15D50D
:10588000164B187A02F0B2FE154902F003FF0146EA
:10589000204602F0FFFE04464FF07E51204603F002
:1058A000B5F808B94FF07E54204638BD5B070BD4DD
:1058B0000A4BD87902F09AFE094902F0EBFE014644
:1058C000204602F0E7FE0446AD6A2146284603F072
:1058D0007FF80028E0D02C46DEE700BF440F002010
:1058E0000AD7233C2DE9F84F4FF034081A4DDFF862
:1058F0006CB095F8544795F8009005F1040AA1455D
:1059000003D1C5F870B7BDE8F88F08FB04F60AEBC1
:105910000600FFF7AFFF01460746584603F058F868
:105920002E44B0B15946584602F0B4FEF06108FB6F
:105930000456D6F828B0F069594603F067F808B164
:10594000C6F81CB00134E4B2242C08BF0024BB46C6
:10595000D5E739463846E7E704070020FFFF7F7F99
:105960002DE9F04F9F4C3422A0468B4618F8045B7B
:1059700091B002FB05F6B04401900021404603F0CF
:10598000E3F89BF80830264413F0020FDBF80420FC
:10599000737518BF944B726308BF04F5EB6393E80B
:1059A0000700342300260DF11C0A8AE8070003FBD8
:1059B00005498E4A019B52F8261053F826000292A0
:1059C00002F068FE00F080FF5AF8261004AB43F89E
:1059D0002600401A80EAE077A7EBE07748F82670C7
:1059E000D9F810103B468F4238BF0B46C9F810302B
:1059F000039302F0FBFD029A0AAF52F8261002F060
:105A0000FDFE002147F8260002F0E2FF039B38B1BB
:105A1000774A12F8161099F814200A4389F81420CE
:105A20000136032EC5D1002B00F0D7804FF034098A
:105A30003846FEF7EEFB09FB05493946C9F8240054
:105A40006C48FEF71DFC3946C9F820006A48FEF78D
:105A500017FC99F81560C9F82C00F1074DD5C9F865
:105A60003000227894F854374FF0000A9A4202D05E
:105A700016F002064CD0342303FB0543C3F818A0EC
:105A8000C3F828A0342606FB0546737D9B0732D455
:105A90004046FFF7EFFED4F870978046014648462F
:105AA00002F096FF002800F095804946484602F033
:105AB000F1FD342303FB0545F061AE6AE869314628
:105AC00002F0A4FF00B1EE614C4B97E80700C4F868
:105AD000708783E8070004AA07CA03E9070094F85F
